:020000040800F2
:10000000F8250020450100084D0100084F010008B7
:1000100051010008530100085501000800000000CC
:100020000000000000000000000000005701000870
:1000300059010008000000005B0100085D01000894
:100040005F0100085F0100085F0100085F01000810
:100050005F0100085F0100085F0100085F01000800
:100060005F0100085F0100085F0100085F010008F0
:100070005F0100085F0100085F0100085F010008E0
:100080005F0100085F0100085F0100085F010008D0
:100090005F0100085F0100085F0100085F010008C0
:1000A0005F0100085F0100085F0100085F010008B0
:1000B000E91900085F010008311A00085F01000813
:1000C0005F0100085F0100085F0100085F01000890
:1000D0005F0100085D2100085F0100085F01000862
:1000E0005F0100085F0100085F0100085F01000870
:1000F0005F0100085F0100085F0100085F01000860
:100100005F0100085F0100085F0100085F0100084F
:100110005F0100085F010008791A0008351B00081C
:100120005F0100085F0100085F0100085F0100082F
:10013000DFF80CD000F0BAFA004800475D3C000838
:10014000F82500200648804706480047FEE7FEE7FE
:10015000FEE7FEE7FEE7FEE7FEE7FEE7FEE7FEE777
:10016000491700083101000880EA010210B502F0C9
:100170000043400022D04A001FD0010E01EB126163
:10018000C0F35600C2F3560240F4000042F40002ED
:10019000A0FB022000047F39140400D0401C50EA68
:1001A000124001D44000491EC2B20C0604EBD0102C
:1001B000401C4008802A02D003E0002010BD20F03F
:1001C0000100002900DA0020184310BD2DE9FE4F80
:1001D00081EA030404F0004421F0004100944FF050
:1001E000000B23F0004350EA01045ED052EA0304FE
:1001F0005BD0C3F30A54C1F30A552C44A4F2F33480
:100200000194A0FB0254C1F3130141F48011C3F324
:10021000130343F4801301FB024400FB034E840AE2
:10022000970A44EA815447EA8357A4FB076802957A
:100230008D0A05FB07854FEA932C04FB0C54270518
:10024000029D4FEA065847EA1637B5EB08056EEBF4
:10025000070C870E920E47EA811742EA8312A7FB2A
:100260000201B6EB0B0164EB00042B0D43EA0C33E7
:100270005E1844EB1C50DA465146E7FB0201C5F319
:1002800013044FEA0B3343EA14534FEA0432019C40
:1002900043EA0603A4F10C040294009CCDE900B4E7
:1002A00000F070F803B0BDE8F08F00200146F9E7D8
:1002B00020F00040C10DC0F3160040F400007F297B
:1002C00001DA00207047962903DCC1F19601C8408D
:1002D000704796398840704730B50B46014600207C
:1002E0002022012409E021FA02F59D4205D303FAF8
:1002F00002F5491B04FA02F52844151EA2F1010279
:10030000F1DC30BD2DE9F05F0546002092469B46AA
:1003100088460646814640241BE02846414647461B
:10032000224600F0E4F953465A46C01A914110D3D0
:1003300011461846224600F0CBF92D1A67EB01084A
:100340004F4622460120002100F0C2F917EB0009B8
:100350004E41201EA4F10104DFDC484631462A4606
:100360004346BDE8F09F10B5141E73F1000408DA8F
:10037000401C41F1000192185B411A4301D120F069
:10038000010010BD2DE9F04D92469B4611B1B1FA26
:1003900081F202E0B0FA80F22032904600F098F943
:1003A00004460F4640EA0A0041EA0B0153465A460A
:1003B000084313D0114653EA010019D0C8F1400296
:1003C000504600F094F905460E46504659464246BE
:1003D00000F07EF9084305D0012004E020463946AC
:1003E000BDE8F08D0020054346EAE0762C43374314
:1003F0000A986305E40AA0EB08000022FD0A44EA1B
:1004000047540A3002D500200146E9E701051019DA
:100410006941DDE9084500196941BDE8F04DA2E7F1
:100420002DE9FE4F804681EA0300C00F0C46009084
:1004300021F0004123F00045B8EB0200A94105D2AC
:100440004046214690461C460B46024623F000409B
:10045000104347D0270DC7F30A00C3F30A51029097
:10046000401A019040286BDAC3F3130040F4801B5C
:100470000098924620B10023D2EB030A63EB0B0BEA
:1004800001985946C0F14002504600F021F9064655
:100490000D4650465946019A00F039F910EB080014
:1004A0006141002487EA115284EAE7731A4340D07D
:1004B000009A62B3019A012A4FEA075215DC001B29
:1004C00061EB02014FF0004202EA0752CDE900421F
:1004D000001C41F5801132462B46FFF753FF03B055
:1004E000BDE8F08F40462146F9E7001B61EB0201B1
:1004F000001C41F5801300185B412018A2F500177D
:1005000047EB030140EAD570B6196D4111E06D0863
:100510004FEA360645EAC0754FEA0752001B61EB09
:100520000201001C41F5801149084FEA3000001912
:10053000514132462B4603B0BDE8F04FFFF713BFE1
:100540000098012240000023D0EB020263EBE0732D
:10055000009821464FEAE074B8EB000061EB04011B
:10056000E9E783F000435BE781F0004158E72DE9BC
:10057000F04D81EA030404F0004B21F000451446DD
:100580004FF0000A23F0004150EA050220D054EA5F
:1005900001021DD0C5F30A570246C5F31303C1F388
:1005A0001300C1F30A5640F4801543F48013A7EBFF
:1005B0000608101BD64608F2FD3873EB050002D37F
:1005C00008F1010801E092185B41B8F1000F03DA6D
:1005D00000200146BDE8F08D00204FF48011064652
:1005E00084460EE0171B73EB050705D3121B63EB64
:1005F000050306434CEA010C49084FEA3000921803
:100600005B4150EA0107EDD152EA030012D082EAC1
:10061000040083EA0501084305D0101BAB4106D254
:100620000122002306E000224FF0004302E06FF0B9
:10063000010253101AEB06004CEB085110EB0A00B4
:1006400041EB0B01BDE8F04DFFF78DBEC1F30A523F
:10065000C1F3130140F2FF3341F480119A4202DAF0
:1006600000200146704740F233439A42A2F23342DF
:1006700002DC524200F03BB800F02AB830B5041E4C
:1006800071F1000404DB4FF00044404264EB0101CF
:10069000141E73F1000405DB1C464FF00043524268
:1006A00063EB0403994208BF904230BD064C074DEE
:1006B00006E0E06840F0010394E807009847103432
:1006C000AC42F6D3FFF738FD5041000870410008F6
:1006D000202A04DB203A00FA02F100207047914002
:1006E000C2F1200320FA03F3194390407047202AF7
:1006F00004DB203A21FA02F00021704721FA02F3CC
:10070000D040C2F120029140084319467047202A88
:1007100006DBCB17203A41FA02F043EAE07306E029
:1007200041FA02F3D040C2F1200291400843194639
:100730007047000010B50021837A012202FA03F10C
:100740003D4A126842F001023B4B1A603A4A1C32A1
:1007500012688A43384B1C331A60027BCAB9364A86
:100760000C3212688A43344B0C331A604288C388B7
:1007700042EA0343304A4032847A42F834300288F5
:10078000838842EA03432C4A4032847A02EBC40253
:100790005360027B012A19D1274A0C3212680A439E
:1007A000254B0C331A604288038842EA0343224AED
:1007B0004032847A42F83430C288838842EA034364
:1007C0001D4A4032847A02EBC4025360C27A3AB9BD
:1007D000194A121D12688A43174B1B1D1A6006E046
:1007E000154A121D12680A43134B1B1D1A60028919
:1007F00032B9114A143212688A430F4B14331A600B
:100800000289012A06D10C4A143212680A430A4BA3
:1008100014331A60427B012A06D1074A1C3212683F
:100820000A43054B1C331A60034A126822F0010286
:10083000014B1A6010BD00000066004030B5024652
:1008400000200023146824F002041460146844F0AB
:100850000104146000E05B1C546804F001041CB93E
:100860004FF6FF74A342F6D1546804F001040CB9AA
:1008700000206CE08C79012C04D1146844F08004D1
:10088000146003E0146824F080041460CC79012C17
:1008900004D1146844F04004146003E0146824F0A8
:1008A000400414600C7A012C04D1146844F0200434
:1008B000146003E0146824F0200414604C7A012CC6
:1008C00004D1146844F01004146003E0146824F0A8
:1008D000100414608C7A012C04D1146844F00804CC
:1008E000146003E0146824F008041460CC7A012C2E
:1008F00004D1146844F00404146003E0146824F084
:10090000040414608C78A407CD7844EA05640D795A
:1009100044EA05444D7944EA05540D886D1E2C4384
:10092000D461146824F001041460002300E05B1C0F
:10093000546804F001041CB14FF6FF74A342F6D1D1
:10094000546804F001040CB1002000E0012030BD27
:100950002DE9F04188B004460D4616461F46DDF8E5
:1009600038800121480600F051FB0121042000F0ED
:100970005DFB4FF40060ADF81C0048208DF81F00AF
:1009800007A9254800F066F94FF48050ADF81C0027
:1009900018208DF81F0003208DF81E0007A91E489F
:1009A00000F058F900208DF816008DF817008DF82A
:1009B000180001208DF8190000208DF81A008DF81C
:1009C0001B008DF812808DF813408DF814608DF89F
:1009D0001550ADF8107004A91048FFF72FFF002044
:1009E0008DF80A008DF80B0001208DF80C00002016
:1009F000ADF80000ADF80200ADF80400ADF8060057
:100A0000ADF8080001208DF80D006846FFF792FE52
:100A100008B0BDE8F081000000080140006400401B
:100A200030B589B005460C460121102000F0FEFAD1
:100A30000121022000F0EAFA0121084600F0F6FA4E
:100A40004FF48070ADF8040003208DF806001820E4
:100A50008DF8070001A9194800F0FCF80121184899
:100A600000F0F8F9ADF81C50ADF818400020ADF8D2
:100A70001E00ADF81A0006A9124801F0B7FA60206E
:100A8000ADF808000020ADF810000120ADF80A0014
:100A900002A90C4801F01AFA08210A4801F066FA86
:100AA0000121084801F0A4F80121064801F0B2F83C
:100AB0000021044801F069FA09B030BD001001407E
:100AC000000C1A000004004000B589B0012108465E
:100AD00000F09CFA0121042000F0A8FA0320ADF8F0
:100AE000200004208DF8230008A9574800F0B2F830
:100AF00005A801F0CDFA0020ADF814004FF41660FF
:100B0000ADF818000020ADF81A00ADF8160005A9E0
:100B10004FF0804001F06AFA00231A4603214FF09B
:100B2000804001F083F802A801F008F90A20ADF82E
:100B3000100002A9400701F0ABF80121880701F07D
:100B400063F801221146900701F001F900214FF0EE
:100B5000804001F01CFA0121880701F05BF84FF496
:100B6000E06000F049FA1C208DF8040000208DF8A8
:100B7000050001208DF806008DF8070001A800F09F
:100B800003FA0121042000F041FA0121202000F0A5
:100B90004DFA0121084600F049FA4FF44050ADF8F3
:100BA000200004208DF8230008A9284800F052F8FE
:100BB0000121080300F04EF905A801F069FA0020B0
:100BC000ADF814004FF41660ADF818000020ADF831
:100BD0001A00ADF8160005A91D4801F007FA002318
:100BE0001A4603211A4801F021F802A801F0A6F8DC
:100BF0000A20ADF8100002A9154801F049F80121BA
:100C0000134801F001F801221146114801F09FF844
:100C100000210F4801F0BBF901210D4800F0FAFF57
:100C20004FF4E06000F0E8F91E208DF80400002089
:100C30008DF8050001208DF806008DF8070001A849
:100C400000F0A2F909B000BD000801400014014005
:100C5000000800402DE9F041024600250026002052
:100C600000230024002791F803C00CF00F0591F831
:100C700003C00CF0100CBCF1000F03D091F802C0BF
:100C80004CEA050591F800C0BCF1000F31D01468A2
:100C900000202BE04FF0010C0CFA00F3B1F800C07B
:100CA0000CEA03069E4220D183004FF00F0C0CFA91
:100CB00003F7BC4305FA03FC4CEA040491F803C0B3
:100CC000BCF1280F06D14FF0010C0CFA00FCC2F861
:100CD00014C00AE091F803C0BCF1480F05D14FF0F1
:100CE000010C0CFA00FCC2F810C0401C0828D1D33B
:100CF0001460B1F800C0BCF1FF0F34DD546800206F
:100D00002EE000F1080C4FF0010808FA0CF3B1F8DE
:100D100000C00CEA03069E4221D183004FF00F0C65
:100D20000CFA03F7BC4305FA03FC4CEA040491F8FF
:100D300003C0BCF1280F05D100F1080C08FA0CF82B
:100D4000C2F8148091F803C0BCF1480F07D100F13C
:100D5000080C4FF0010808FA0CF8C2F81080401C8B
:100D60000828CED35460BDE8F081000030B589B0CA
:100D700005460C460121102000F058F901210220FF
:100D800000F044F90121084600F050F903208DF8E5
:100D9000060018208DF80700C020ADF8040001A956
:100DA0002948FFF757FF10208DF807000520ADF800
:100DB000040001A92448FFF74DFF10208DF807001B
:100DC0000A20ADF8040001A91F48FFF743FF0121E5
:100DD0001E4800F03FF8ADF81C50ADF81840002058
:100DE000ADF81E00ADF81A0006A9194801F0FEF88A
:100DF0006020ADF808000020ADF810000120ADF82B
:100E00000A0002A9124800F0ABFF02A9104800F046
:100E1000FDFF08210E4800F0EFFF08210C4801F00B
:100E200047F801210A4800F0E3FE0121084800F0DC
:100E3000F1FE0021064801F0A4F80021044801F069
:100E4000A2F809B030BD000000100140000C1A00EB
:100E500000040040F0B50A460023002400210025CC
:100E600000F00046B6F1004F02D11D4EF16901E0DD
:100E70001B4E7168C0F3034583B200F44016B6F50B
:100E8000401F08D121F07061154E766826F070661B
:100E9000134F7E6012E000F48016B6F5801F06D175
:100EA000032606FA05F4A14341F0706106E0460D01
:100EB000360103FA06F6B14341F0706122B1460DE6
:100EC000360103FA06F6314300F00046B6F1004F52
:100ED00002D1034EF16101E0014E7160F0BD0000EE
:100EE00000000140416170470161704700B587B063
:100EF000012141F2040000F099F8E020ADF818005B
:100F000001208DF81A0018208DF81B0006A91C4836
:100F1000FFF7A0FE1020ADF8180001208DF81A0090
:100F200010208DF81B0006A91548FFF793FE10212D
:100F30001348FFF7D9FF0020ADF804004FF482708A
:100F4000ADF806000020ADF80800ADF80A00ADF8D5
:100F50000C004FF40070ADF80E001020ADF810003A
:100F60000020ADF812000720ADF8140001A90548D3
:100F700000F038FB0121034800F0DEF807B000BDA7
:100F8000000801400030014070B5002100230F220D
:100F9000C47804B3154C246804F4E064C4F5E06438
:100FA000210AC1F10403CA40447804FA03F18478A9
:100FB0001440214309010E4C0678A155047804F031
:100FC0001F050124AC4005786D11AD0005F1E02549
:100FD000C5F8004109E0047804F01F050124AC4085
:100FE000044D0678761145F8264070BD0CED00E002
:100FF00000E400E080E100E002490143024A1160A0
:10100000704700000000FA050CED00E029B1064A27
:10101000D2690243044BDA6104E0034AD269824395
:10102000014BDA61704700000010024029B1064A06
:1010300092690243044B9A6104E0034A9269824335
:10104000014B9A61704700000010024030B500214A
:101050000022002400232D4D6D6805F00C0121B104
:10106000042905D0082923D105E0294D056022E097
:10107000274D05601FE0254D6D6805F47012234D66
:101080006D6805F48034022505EB92421CB9214DB0
:10109000554305600BE01D4D6D6805F400351DB12D
:1010A0001C4D5543056002E0194D5543056002E0B3
:1010B000174D056000BF00BF144D6D6805F0F001CD
:1010C0000909154D6B5C0568DD4045600F4D6D6885
:1010D00005F4E061090A104D6B5C4568DD408560F0
:1010E0000A4D6D6805F46051C90A0B4D6B5C45688B
:1010F000DD40C560054D6D6805F44041890B074D25
:101100006B5CC568B5FBF3F5056130BD00100240AE
:1011100000127A0000093D00320000204200002049
:101120004FF08041898C08B270470000014909885E
:1011300008B270472408004021B1028842F0400202
:10114000028004E002884FF6BF731A4002807047A5
:1011500070B505460C4616464FF400511048FFF78F
:10116000C1FE032000F0B4F9C4F3074000F0B0F969
:10117000C4F3072000F0ACF9E0B200F0A9F904E0F4
:10118000FF2000F0A5F928706D1C3000A6F10101C8
:101190008EB2F5D14FF400510148FFF7A5FE70BDA6
:1011A000002001402DE9F05F07460E4614464FF03F
:1011B0000008C146C2460025AB4606F0FF0ACAF148
:1011C0000000C5B22046E11704EB1161C1F3072806
:1011D000E11704EB11610912A4EB012101F0FF09F1
:1011E000BAF1000F20D1B8F1000F05D122463146E7
:1011F000384600F0CDF864E009E04FF480723146E3
:10120000384600F0C5F806F5807607F580775FEA86
:101210000800A8F1010101F0FF08EED14A4631466D
:10122000384600F0B5F84CE0B8F1000F18D1A945E8
:1012300010DDA9EB050000F0FF0B2A4631463846C9
:1012400000F0A6F82E442F445A463146384600F0A6
:101250009FF836E022463146384600F099F830E0F3
:10126000601B84B22046E11704EB1161C1F307282B
:10127000E11704EB11610912A4EB012101F0FF0950
:101280002A463146384600F083F82E442F4409E0C0
:101290004FF480723146384600F07AF806F58076D1
:1012A00007F580775FEA0800A8F1010101F0FF0867
:1012B000EED1B9F1000F04D04A463146384600F06D
:1012C00067F8BDE8F09F000000B587B001218803F2
:1012D000FFF79CFE01214CF20810FFF7A7FE4FF428
:1012E0000050ADF8040003208DF8060010208DF8A2
:1012F000070001A92348FFF7ADFC4FF40050ADF8FB
:10130000040018208DF8070001A91F48FFF7A2FC70
:101310004FF48040ADF8040001A91B48FFF79AFC88
:101320004FF40040ADF8040001A91748FFF792FC04
:101330004FF400511348FFF7D7FD0020ADF8080027
:101340004FF48270ADF80A000020ADF80C000220C6
:10135000ADF80E000120ADF810004002ADF812000B
:101360000020ADF81400ADF816000720ADF8180005
:1013700002A9064800F036F901210448FFF7DCFE17
:1013800007B000BD00200140000C014000380040C3
:1013900070B505460C46164600F0F2F84FF40051C1
:1013A0001548FFF79FFD022000F092F8C4F30740B4
:1013B00000F08EF8C4F3072000F08AF8E0B200F0E5
:1013C00087F8B6F5807F04DD4FF480760BA001F03E
:1013D0004DF803E0287800F07BF86D1C3000A6F192
:1013E00001018EB2F6D14FF400510348FFF77CFDA6
:1013F00000F0AAF870BD0000002001403C3C2D46E2
:101400004C4153482D4552524F522D3E3E20535091
:10141000495F464C4153485F506167655772697434
:101420006520746F6F206C61726765210A0000008F
:101430002DE9F04100240025002600274FF400513B
:101440001048FFF74FFD902000F042F8002000F018
:101450003FF8002000F03CF8002000F039F8FF20B1
:1014600000F036F80546FF2000F032F806464FF44B
:1014700000510448FFF738FD46EA05242046BDE840
:10148000F08100000020014010B5044600F078F81B
:1014900000F05AF84FF400510C48FFF723FD2020CC
:1014A00000F016F8C4F3074000F012F8C4F3072068
:1014B00000F00EF8E0B200F00BF84FF400510348D2
:1014C000FFF712FD00F040F810BD000000200140C1
:1014D00010B504464FF48050194908600AE01849D5
:1014E0000868411E164A116020B9002000F098F8E3
:1014F000C0B210BD0221134800F066F80028EED0FB
:101500002146104800F06CF84FF480500C490860F8
:101510000AE00B490868411E094A116020B9012000
:1015200000F07EF8C0B2E4E70121064800F04CF874
:101530000028EED0034800F050F8C0B2D9E7000010
:10154000180000200038004010B500244FF400516E
:101550000A48FFF7C7FC0520FFF7BAFF00BFFF20CE
:10156000FFF7B6FF044604F001000028F7D14FF45E
:1015700000510248FFF7B8FC10BD000000200140F8
:1015800010B54FF400510648FFF7ACFC0620FFF7FA
:101590009FFF4FF400510248FFF7A6FC10BD00006A
:1015A0000020014010B54FF400510648FFF79AFCA7
:1015B000AB20FFF78DFF4FF400510248FFF794FC7A
:1015C00010BD0000002001400246002013890B409E
:1015D0000BB1012000E00020704701468889704768
:1015E0008181704710B50022028802F441520B88B5
:1015F0004C8823438C882343CC8823430C89234382
:101600004C8923438C892343CC8923431A4302808A
:10161000838B4FF2FF74234083830B8A038210BDB8
:1016200010B50446214602A000F020FF002010BDA6
:101630003C3C2D464C4153482D4552524F522D3E75
:101640003E2053504920B5C8B4FDB3ACCAB12165A2
:1016500072726F72436F6465203D2025640A00003A
:1016600010B500F001F810BD0CB5002001900090FD
:101670003348006840F480303149086000BF30488A
:10168000006800F4003000900198401C0190009820
:1016900018B90198B0F5A06FF1D12948006800F49D
:1016A000003010B10120009001E00020009000986F
:1016B000012843D12348006840F010002149086008
:1016C0000846006820F0030008600846006840F003
:1016D000020008601A484068194948600846406896
:1016E00048600846406840F48060486008464068AA
:1016F00020F47C1048600846406840F4E8104860D8
:101700000846006840F08070086000BF0C48006820
:1017100000F000700028F9D00948406820F003006C
:10172000074948600846406840F00200486000BF32
:101730000348406800F00C000828F9D10CBD0000F7
:10174000001002400020024010B51348006840F02D
:1017500001001149086008464068104908400E49D8
:101760004860084600680E4908400B490860084672
:10177000006820F4802008600846406820F4FE00DD
:1017800048604FF41F008860FFF76AFF4FF0006069
:101790000449086010BD0000001002400000FFF87E
:1017A000FFFFF6FE08ED00E0F0B50C4615460022FE
:1017B0000021068C4FF6FE773E400684028B018C9A
:1017C0004FF60C7632407E1C06EA03162E43324357
:1017D000104EB0420ED0104EB0420BD0B0F1804F40
:1017E00008D00E4EB04205D00D4EB04202D00D4E84
:1017F000B04206D14FF6FD76314044F00106314348
:1018000005E04FF6F576314044F00106314302839E
:101810000184F0BD002C0140003401400004004070
:1018200000080040000C0040F0B50C4615460022B0
:1018300000210026078C4FF6EF7C07EA0C0707848F
:10184000028B018C4FF6FF7707EA041640F6FF473C
:101850003A404FF6FF7707EA03373A434FF6FF77F0
:1018600007EA05273A43114FB8420ED0104FB8424D
:101870000BD0B0F1804F08D00E4FB84205D00E4FBC
:10188000B84202D00D4FB84206D14FF6DF7739404B
:1018900046F01007394305E04FF65F77394044F0D2
:1018A0001007394302830184F0BD0000002C014081
:1018B000003401400004004000080040000C0040DB
:1018C000F0B50C461546002200210026078C4FF685
:1018D000FF6C07EA0C070784828B018C4FF6FF77B9
:1018E00007EA04264FF60C773A404FF6FF7707EAEF
:1018F00003172F433A43114FB8420ED0104FB8424E
:101900000BD0B0F1804F08D00E4FB84205D00E4F2B
:10191000B84202D00D4FB84206D14FF6FF573940BA
:1019200046F48077394305E04FF2FF57394044F4DD
:101930008077394382830184F0BD0000002C014090
:10194000003401400004004000080040000C00404A
:10195000F0B50C461546002200210026078C4EF6F5
:10196000FF7C07EA0C070784828B018C4FF6FF7718
:1019700007EA043640F6FF473A404FF6FF7707EA9A
:1019800005273A434FF6FF7707EA03373A43114FEB
:10199000B8420ED0104FB8420BD0B0F1804F08D0F3
:1019A0000E4FB84205D00E4FB84202D00D4FB8428C
:1019B00006D14DF6FF77394046F48057394305E0AC
:1019C00047F6FF57394044F48057394382830184F6
:1019D000F0BD0000002C0140003401400004004034
:1019E00000080040000C004010B54FF08040008A15
:1019F00000F0010048B1FFF793FB0446214607A021
:101A000000F034FD012002F069FA4FF08040008AB6
:101A100020F001004FF08041088210BDB1E0C2EB20
:101A2000C6F731BDE1B9FBCEAAA3BA25640A00000E
:101A300010B50B48008800F0010048B1FFF776FBB5
:101A40000446214607A000F011FD022002F046FAEC
:101A50000348008820F001000149088010BD000003
:101A600010080040B1E0C2EBC6F732BDE1B9FBCED1
:101A7000AAA3BA25640A000010B50121274800F086
:101A8000F6F8002844D026480068401C2449086025
:101A90000846006823490968884239D122480078FD
:101AA000072827D2DFE800F026040D0911181F00CF
:101AB00000211E4800F069FA1CE0012002F00EFA35
:101AC00018E0022002F00AFA14E00023012219466D
:101AD000104602F0F5FA0DE000230122194602201B
:101AE00002F0EEFA06E0002301221946042002F07B
:101AF000E7FA00BF00BF0021084800F08BF8002083
:101B000009490870064908600649086008490870D4
:101B10000121024800F07BF810BD000000100040D9
:101B2000200000201C0000202400002000040040B1
:101B30002500002010B50121274800F098F8002862
:101B400044D026480068401C2449086008460068C4
:101B500023490968884239D122480078072827D2CA
:101B6000DFE800F026040D0911181F0000211E48AF
:101B700000F00BFA1CE0012002F0B0F918E002209E
:101B800002F0ACF914E0002301221946104602F0DD
:101B900097FA0DE0002301221946022002F090FA84
:101BA00006E0002301221946042002F089FA00BF52
:101BB00000BF0021084800F02DF8002009490870F6
:101BC0000649086006490860084908700121024872
:101BD00000F01DF810BD0000001400402C00002093
:101BE00028000020300000200004004031000020C8
:101BF00021B1028842F08002028004E002884FF6A0
:101C00007F731A4002807047CA4302827047CA43FA
:101C10000282704721B1028842F00102028004E092
:101C200002884FF6FE731A4002807047F0B50C46EA
:101C300015461E460021002200230189028B038CD9
:101C40004FF6F877394021434FF6FC473A4040F2CF
:101C500001173A434FF6DD773B404FF6FF7707EA2F
:101C600006172F433B43018102830384F0BD30B547
:101C70000246002000230024158A05EA0103958905
:101C800005EA010413B10CB1012000E0002030BDD1
:101C900070B505460C46244885420ED0234885423F
:101CA0000BD0B5F1804F08D02148854205D021489E
:101CB000854202D02048854200D100E000BF208844
:101CC00050B92389A28861882846FFF76DFDE18815
:101CD000284600F05EF925E0208804280AD12389EF
:101CE000A28861882846FFF79FFDE188284600F01A
:101CF00059F917E0208808280AD12389A288618829
:101D00002846FFF7DDFDE188284600F058F909E094
:101D10002389A28861882846FFF71AFEE1882846B1
:101D200000F056F970BD0000002C01400034014065
:101D30000004004000080040000C00400021018029
:101D40004180012181800021C180018170471AB149
:101D500083890B43838102E083898B4383817047AE
:101D600070B5002400220023058C4FF6FE76354026
:101D70000584028C8388048B4FF68F752C40B51E2A
:101D80002C400D882C43751E2A400D892A434D880E
:101D90002A43144DA8420BD0134DA84208D0134D2E
:101DA000A84205D0124DA84202D0124DA84213D12C
:101DB0004FF6F7752A404D892A434FF6FB752A40A6
:101DC0008D882A434FF6FF652B404FF6FF552B4079
:101DD0008D892B43CD892B4383800483CD888586D1
:101DE000028470BD002C01400034014000400140DD
:101DF00000440140004801400A460021018B4FF693
:101E0000F7731940114301837047000070B5002437
:101E100000220023058C4FF6EF7635400584028CB6
:101E20008388048B48F6FF752C404FF6FF452C4005
:101E30000D884FF6FF7606EA05252C434FF6DF7531
:101E40002A400D8906EA05152A434D8806EA05153C
:101E50002A43154DA84202D0144DA8421DD14FF679
:101E60007F752A404D894FF6FF7606EA05152A430D
:101E70004FF6BF752A408D8806EA05152A434FF6AE
:101E8000FF352B404FF2FF752B408D8906EA850503
:101E90002B43CD8906EA85052B4383800483CD88B7
:101EA0000587028470BD0000002C01400034014011
:101EB0000A460021018B4FF2FF7319404FF6FF7362
:101EC00003EA0223194301837047000070B5002420
:101ED00000220023058C4FF6FF6635400584028CF6
:101EE0008388848B4FF68F752C404FF6FC752C4001
:101EF0000D882C434FF6FF552A400D894FF6FF768B
:101F000006EA05252A434D8806EA05252A43154D8C
:101F1000A84202D0144DA8421DD14FF2FF752A40AD
:101F20004D894FF6FF7606EA05252A434FF6FF3521
:101F30002A408D8806EA05252A434EF6FF752B4078
:101F40004DF6FF752B408D8906EA05152B43CD898B
:101F500006EA05152B4383808483CD888587028418
:101F600070BD0000002C0140003401400A460021F1
:101F7000818B4FF6F7731940114381837047818538
:101F800070478186704701877047818770478184D9
:101F90007047028B4FF6F3731A400283028B0A4399
:101FA00002837047028B4FF2FF331A400283028B89
:101FB0004FF6FF7303EA01231A4302837047828BB3
:101FC0004FF6F3731A408283828B0A4382837047F1
:101FD000828B4FF2FF331A408283828B4FF6FF735E
:101FE00003EA01231A43828370470000002202881B
:101FF0001D4B98420ED01D4B98420BD0B0F1804F34
:1020000008D01B4B984205D01A4B984202D01A4B6D
:10201000984204D14FF68F731A404B881A43174BDE
:10202000984207D0164B984204D04FF6FF431A400F
:10203000CB881A4302808B8883850B8803850A4BE3
:1020400098420BD0094B984208D00E4B984205D0CD
:102050000D4B984202D00D4B984201D10B7A03866A
:102060000123838270470000002C014000340140AE
:102070000004004000080040000C00400010004038
:10208000001400400040014000440140004801406D
:102090004FF6FF71818000210180C1804180017273
:1020A0007047000010B586B0044601210420FEF7F9
:1020B000BDFF01218803FEF7B9FF4FF40070ADF8B2
:1020C000140003208DF8160018208DF8170005A9BC
:1020D0002048FEF7BFFD4FF48060ADF814000420E7
:1020E0008DF8170005A91B48FEF7B4FD01940020E8
:1020F000ADF80800ADF80A00ADF80C00ADF810001E
:102100000C20ADF80E0001A9134800F02BF90121B5
:10211000114800F0BEF840210F4800F0B1F801224C
:1021200040F225510C4800F0F7F84FF4A060FEF79C
:1021300063FF25208DF8000003208DF801008DF845
:10214000020001208DF803006846FEF71DFF06B06F
:1021500010BD0000000801400038014010B540F2F9
:1021600025513E4800F0AEF8002872D03B4800F000
:1021700065F9C4B22146394800F069F9452C1CD1F3
:1021800037480078012802D13649087002E0002063
:1021900034490870344801780078401C324A107085
:1021A0003248445400202E490870314908700120FB
:1021B000304908700020304908702948007801280B
:1021C00008D1294801780078401C274A10702B4814
:1021D000445400BF26480078012811D122480078D5
:1021E000142800D100BF204801780078401C1E4A06
:1021F00010701E4844542048007860401E49087002
:10220000442C07D101201649087000201949087094
:1022100015490870532C15D101201549087000206C
:102220001449087010490870442208460178007863
:10223000401C0D4B18700D4842540F480078604008
:102240000D49087000BF4021044800F02EF8012815
:10225000F9D14021014800F013F810BD00380140C9
:102260000A0000200E000020090000205800002075
:102270000B0000200D0000200C00002001000020B9
:1022800001F40072B2F5007F00D100BFCA430280A2
:10229000704721B1828942F40052828104E0828930
:1022A0004DF6FF731A408281704702460020B1F557
:1022B000007F00D100BF13880B400BB1012000E06C
:1022C0000020704770B5024600240023002500203E
:1022D00040F66A16B14200D100BFC1F3421501F0C9
:1022E0001F03012606FA03F3012D02D1968933401C
:1022F00006E0022D02D1168A334001E0968A33406F
:102300000C12012606FA04F41688344013B10CB1FD
:10231000012000E0002070BDF0B503460024002637
:102320000025002040F66A17B94200D100BF1846C8
:10233000C1F3421401F01F06012707FA06F5012C2C
:1023400001D10C3004E0022C01D1103000E0143037
:102350001AB107682F43076002E00768AF430760C0
:10236000F0BD00002DE9F04786B005460E4600247A
:10237000A24600BFA1460027B08900B100BF2F468A
:102380002C8A4CF6FF700440F08804432C82AC8900
:102390004EF6F3100440B088318908437189084330
:1023A0000443AC81AC8A4FF6FF400440B08904433B
:1023B000AC8201A8FEF74AFE1F48874202D1DDF831
:1023C00010A001E0DDF80CA0A88900F4004040B1A5
:1023D0000AEBCA0000EB0A1031684900B0FBF1F8C3
:1023E00007E00AEBCA0000EB0A1031688900B0FB75
:1023F000F1F86420B8FBF0F004012009642101FB2E
:102400001089A88900F4004040B1322000EBC900D7
:10241000B0FBF1F000F00700044308E0322000EBCD
:1024200009106421B0FBF1F000F00F0004432C818F
:1024300006B0BDE8F08700000038014001468888FA
:10244000C0F308007047C1F308028280704770B57E
:1024500004460D4629462046FFF7F5FF00BF8021C0
:102460002046FFF722FF0028F9D070BD0FB4054BBE
:1024700010B503A9044A029800F0CAF810BC5DF830
:1024800014FB0000693B00085400002002E008C86B
:10249000121F08C1002AFAD170477047002001E0DE
:1024A00001C1121F002AFBD1704700002DE9FF5F18
:1024B000DDE90220010DDDF838B0024318D044F602
:1024C0001050A1F2FF3141430D140F98012820D084
:1024D000A5EB0B00401C5FEA000A4FF00004474EDA
:1024E000DFF81C91A046504616D5CAF1000728E037
:1024F0000F98012443A2012808D0002100980F9BC7
:10250000C0E90021C0E90243BDE8FF9F6FEA0B016B
:10251000F4E7CBF10000DEE7074612E0F80707D04A
:102520002246334640464946FDF750FE80468946DE
:102530002246334610461946FDF748FE04460E462D
:102540007F10002FEAD1DDE90201BAF1000F424607
:102550004B4602DAFDF73AFE01E0FEF708F80446C2
:102560000E460022284BFEF789F803D84FF0FF30C3
:10257000014607E00022254B20463146FDF750FF7B
:10258000FEF764F8102409E0002C0ADB0A2200237D
:10259000FDF7B8FE019B30321A55641E50EA010265
:1025A000F2D1641C019AC4F1110314440F9A012A58
:1025B00003D0012208430DD10AE0084304D00020D3
:1025C0004FF0110B0F9080E7A3EB0B056D1E0DE094
:1025D0005B4504DD4FF0000205F1010504E003DA7C
:1025E0004FF00002A5F10105002AECD000980F99E8
:1025F000C0E90231C0E9004586E700000000244040
:102600000000F03F300000000000F0430000E03F19
:102610002DE9FF4F95B09B468946064600250FE2FF
:10262000252877D100242746F84A0121059400E0A7
:10263000044316F8013F203B01FA03F01042F7D1A2
:1026400030782A2811D06FF02F033078A0F13002B3
:10265000092A16D8059A44F0020402EB820203EB21
:1026600042021044761C0590EFE759F8042B0592BE
:10267000002A03DA504244F40054059044F0020466
:10268000761C30782E2816D116F8010F44F0040479
:102690002A280DD06FF02F023078A0F13003092BDB
:1026A00009D807EB870302EB4303C718761CF3E74F
:1026B00059F8047B761C30786C280FD006DC4C2847
:1026C00017D068280DD06A2814D104E0742810D0DF
:1026D0007A280FD10DE044F400140AE044F4801489
:1026E00001E044F440147278824202D104F580146F
:1026F000761C761C307866280BD013DC582877D0EF
:1027000009DC002875D04528F6D04628F4D04728A3
:102710001AD19DE118E0632835D0642879D0652866
:1027200012D195E1702873D008DC6728F1D06928B0
:102730006FD06E280DD06F2806D1B5E073282CD04D
:10274000752875D0782874D05A46179990476D1C13
:1027500075E1C4F30250022809D003280DD0D9F83E
:10276000001004280DD00D6009F1040967E1D9F8C3
:102770000010EA17C1E90052F6E7D9F800100D8001
:10278000F2E70D70F0E719F8041B8DF80010002037
:102790008DF80100EA46012003E059F804AB4FF040
:1027A000FF3061074FF0000102D40DE008F1010194
:1027B0008846B9420FDA8045F8DB1AF8081000297C
:1027C000F4D108E008F1010188468142FADB1AF8E9
:1027D00008100029F6D105985B46A0EB08072146B2
:1027E0003846179A00F094FA284400EB080507E0F1
:1027F0004DE029E10DE01AF8010B5A461799904770
:10280000B8F10108F7D25B4621463846179A13E122
:1028100042E00A220092C4F302524FF0000A022A58
:1028200008D059F804CB032A4FEAEC710AD00DE026
:1028300029E02AE009F1070121F00702F2E802C1CC
:10284000914609E00FFA8CFC4FEAEC71042A03D19F
:102850004FFA8CFC4FEAEC71002907DA0A46002196
:10286000DCF1000C61EB02012D2202E0220504D50F
:102870002B228DF80420012203E0E20701D0202260
:10288000F7E7904659E00A2102E010220DE01021FE
:102890004FF0000A00910BE010224FF0000A44F0C4
:1028A00004040827009203E008224FF0000A009277
:1028B000C4F30252022A05D059F804CB0021032A9E
:1028C00008D009E009F1070121F00702F2E802C18E
:1028D000914605E01FFA8CFC042A01D10CF0FF0C94
:1028E0004FF00008220728D5702806D0009B83F0FF
:1028F000100353EA0A0305D00EE040228DF80420AD
:10290000012208E05CEA010206D030228DF80420A2
:102910008DF8050002229046009B83F0080353EADD
:102920000A030AD15CEA010201D1620705D530220F
:102930008DF804204FF001087F1E582804D034A0E1
:1029400003900EA802900DE036A0F9E753466046CA
:10295000009AFDF7D7FC84460398825C0298401EDB
:10296000029002705CEA0100F0D1029806A9081AF0
:1029700000F1200A600702D524F4803400E001272A
:10298000574502DDA7EB0A0000E0002000EB0A013A
:10299000009005984144401A0590E00306D45B4638
:1029A0002146179A059800F0B3F90544002706E080
:1029B00001A85A46C05D179990476D1C7F1C47457A
:1029C000F6DBE0030CD55B462146179A059800F02C
:1029D0009FF9054404E030205A46179990476D1C32
:1029E0000099481E00900029F5DC08E00298029941
:1029F0005A460078491C0291179990476D1CBAF10C
:102A00000001AAF1010AF1DC65E1000009280100DA
:102A10003031323334353637383961626364656654
:102A20000000000030313233343536373839414216
:102A3000434445460000000000F058F90544761C68
:102A4000307800287FF4ECAD19B02846BDE8F08F4F
:102A5000620700D4062709F1070222F0070CFCE800
:102A60000223E14603F000485FEA080C02D00FF2AF
:102A7000702C0DE05FEA045C02D50FF2682C07E0D1
:102A80005FEAC47C02D00FF2602C01E0AFF2700C60
:102A90004FF0FF3823F00043CDF850C065280CD02C
:102AA00006DC452809D046281DD047283DD13DE009
:102AB000662818D067287ED138E00021112F01DB6D
:102AC000112000E0781CCDE9000106A90EA8FFF74F
:102AD000EDFCDDE90F010E9A03910021009207F150
:102AE000010A04914DE04FF000400097CDE901103C
:102AF00006A90EA8FFF7DAFCDDE90F0203920E9B90
:102B000011990022DDF80CA00093049211B9791CF0
:102B100000EB010AB7EB0A0004D4C0F1FF3007F163
:102B2000010A0490AAEB0700019044E0012F00DAAB
:102B300001270021112F01DD112000E03846CDE9E9
:102B4000000106A90EA8FFF7B1FCDDE90F010E9AFE
:102B50000391002104910092BA4621070CD40399F5
:102B6000514500DA8A46BAF1010F05DD009AAAF153
:102B70000101515C302908D0B84202DA10F1040F8B
:102B800006DA0121CDE9011015E0AAF10101E9E71A
:102B9000002805DC049901440491AAEB000102E03D
:102BA000411C514500DD8A460499401A401C0190A1
:102BB0004FF000400290200704D40198504501DBFB
:102BC000CDF8048000208DF84F0002980DF14F07DA
:102BD000B0F1004F25D02B200E9002984FF0020844
:102BE00000280CDA404202902D200E9007E00A21C6
:102BF0000298FDF771FB3031029007F8011DB8F122
:102C00000001A8F10108F2DC02980028EFD1791E3A
:102C10000E980870307800F0200040F0450007F86A
:102C2000020D12A8C01B00F107081498007800B12B
:102C3000012000EB0A01019801EBE0710598414485
:102C4000401A401E0590E00306D45B462146179AC1
:102C5000059800F05DF805441498007818B15A46BC
:102C6000179990476D1CE00324D55B462146179ABF
:102C7000059800F04DF805441CE00498002807DB97
:102C8000DDE90301884203DD0098405C179901E00B
:102C9000179930205A469047049805F10105401CC9
:102CA00004900198401E019004D12E205A46179995
:102CB00090476D1CBAF10001AAF1010ADDDC05E0C4
:102CC00017F8010B5A46179990476D1CB8F100018F
:102CD000A8F10108F4DC5B462146179A0598ABE69B
:102CE0002D0000002B000000200000002DE9F04125
:102CF000044600251E461746880404D405E03946DC
:102D00002020B0476D1C641EF9D52846BDE8F0812F
:102D10002DE9F041044600251E469046C80301D522
:102D2000302700E02027880404D505E041463846D6
:102D3000B0476D1C641EF9D52846BDE8F08100003F
:102D400070B504460D4600202071401EE062294601
:102D5000204601F0DDF808B1032070BD94F82E1272
:102D600094F82F0241EA00204AF65521884201D00A
:102D70000220F2E794F86900010694F8680041EA3D
:102D8000004194F8670041EA002094F86610084377
:102D900020F07F400D49884201D10020DDE794F802
:102DA0008500010694F8840041EA004194F883000C
:102DB00041EA002094F88210084320F07F40034944
:102DC000884201D10020C8E70120C6E746415400EF
:102DD00070B50446012614B1012C11D100E011E0B8
:102DE000FEF772FA4FF4FA7500BF681E80B2050054
:102DF000FBD1FEF7D7FB012000F049F8064601E0C1
:102E0000012600BF00BF304670BD10B50346042048
:102E100013B1012B16D100E016E0012904D00229DC
:102E200006D003290BD107E04FF4C064146006E01C
:102E30004FF48054148002E00124146000BF00BFEE
:102E4000002001E0042000BF00BF10BD2DE9F041CB
:102E500005460E4614461F464FF0040815B1012DD5
:102E60000ED100E00FE004F500744FF6FF7000EAA9
:102E7000073221033046FEF76BF94FF0000802E0FD
:102E80004FF0040800BF00BF4046BDE8F08170B5B8
:102E90000446012514B1012C0CD100E00CE0FEF732
:102EA000C7FA40F61631884202D125F0010500E04C
:102EB000012501E0012500BF00BF284670BD2DE9B6
:102EC000F0470746884614461D464FF0040915B9D9
:102ED0000420BDE8F08717B1012F12D100E013E004
:102EE00004F5007426033046FEF7CEFA4FF6FF7065
:102EF00000EA053231464046FEF754F94FF000092A
:102F000002E04FF0040900BF00BF4846E1E70000BF
:102F10002DE9F74F90B091461198012803DD132059
:102F200013B0BDE8F08F10A800F034FE0F900F989A
:102F3000002801DA0B20F3E7FA490F9851F82050E6
:102F40000DB90C20ECE7002028700F98C0B20C904F
:102F500000200B900C98FFF73BFF0190019800F0C8
:102F6000010008B10320DBE7019800F0040008B17C
:102F70000A20D5E705F10A0202210C98FFF745FF68
:102F800038B96889B0F5805F03DC6889B0F5007FE7
:102F900001DA0120C4E700BF04AA01210C98FFF761
:102FA00034FF10B90498802801D20120B8E71198A5
:102FB00008B1002000E03F2082460498A0EB0A0000
:102FC0000490A9F1010000EA090008B14FF00009DE
:102FD000B9F1000F1AD16889C11700EBD15149121C
:102FE0004FF4FA6292FBF1F1049AB2FBF1F10A910B
:102FF0004FF0000B01E00BF1010BCB4830F81B1038
:103000000A988142F7D8C94830F81B90B9F5007F7B
:1030100002D36889B9FBF0F9B9F1000F01D14FF083
:103020000109B9F1800F01D94FF080090498B0FB74
:10303000F9F8012640F6F670804500D302264FF6D7
:10304000F670804500D30326032E0CD1082000EB38
:10305000880069890844401EB0FBF1F720200390E6
:103060000020029019E0012E05D108EB4800401C19
:103070004008C01C02E04FEA4800001D074668896E
:103080003844401E6989B0FBF1F70120039068893C
:103090004FF48041B1FBF0F0029003985044079048
:1030A00007983844069002990698084405900598B8
:1030B0004844A0EB0A000499884201D90E202FE76A
:1030C00009AA03210C98FFF7A0FE28B9099818B1A6
:1030D0000998B0F5004F01D9012009900999059888
:1030E0000844401E491E8843099009990598081A0A
:1030F0000990032E08D1099903980844039009996F
:1031000007980844079001E009980744DDE90301A6
:10311000081AC11B0298081AB0FBF9F8022E03D155
:1031200040F6F670804505D3032E05D14FF6F670B4
:10313000804501D20E20F3E6032E02D10C200D9023
:1031400010E0012E06D10498B0F5803F02D2012094
:103150000D9007E00498B0F5803F01D2042000E014
:1031600006200D9000BF119810B1F0200E9043E0A2
:103170006A89002105F1300000F0BBFD05F5F77408
:1031800001206070A0700020E0700D982071FE207A
:103190006071049850443F21B0FBF1F0FF21B0FB77
:1031A000F1F009903F21099841EA9000A071099837
:1031B000E0713F20207200216172A172E1720498D7
:1031C00020730498010A61730498010CA173049898
:1031D000010EE173552185F82E12AA2185F82F12D0
:1031E0000123002205F130010C98FFF768FE08B1B9
:1031F000012095E6F8200E9005F130046A8900213F
:10320000204600F076FD0B2249A1204600F064FD27
:10321000B5F80AB084F80BB04FEA1B21217384F88B
:103220000D900398A0730398010AE17301202074A4
:10323000032E01D1002001E04FF40070834684F892
:1032400011B04FEA1B21A1740498B0F5803F05D25C
:103250000498E0740498010A217510E0049884F839
:1032600020000498C0F30721212001550498C0F3E1
:103270000741222001550498010E232001550E9884
:1032800060753F20207600216176FF20A076E176F0
:1032900084F81CA04FEA1A2161774FEA1A41A177FE
:1032A0004FEA1A61E17700F071FC0990032E4BD1CF
:1032B000099884F843000998C0F307214420015578
:1032C0000998C0F30741452001550998010E462091
:1032D000015584F82470C7F3072125200155C7F351
:1032E000074126200155390E27200155022084F878
:1032F0002C0000212D2001552E2001552F20015595
:10330000012084F8300031200155062084F8320075
:1033100033200155802084F84000292084F84200A1
:1033200013220BE048000020224100083841000829
:10333000EBFE904D53444F53352E30008AA104F1DB
:10334000470000F0C9FC1FE0099884F8270009989D
:10335000C0F30721282001550998C0F3074129200F
:1033600001550998010E2A200155A775390AE17502
:10337000802084F82400292084F8260013227FA1CD
:1033800004F12B0000F0A8FC552084F8FE01AA21CE
:1033900040F2FF1001550123524621460C98FFF7D9
:1033A0008EFD08B10120BBE5032E06D101230AF1F1
:1033B000060221460C98FFF782FD079808904FF00F
:1033C000000B5FE06A890021204600F092FC0E9815
:1033D0000990032E14D0012E01D16D4801E06FF049
:1033E000FF00099908430990099820700998000A7C
:1033F00060700998000CA0700998000EE07019E048
:10340000099860F0FF000990099820700998000A57
:1034100060700998000CA0700998000EE070FF2001
:103420002071FF216171A171E17120726172A1723D
:103430000F21E1720898411C0246012308912146A0
:103440000C98FFF73CFD08B1012069E56A8900216D
:10345000204600F04EFC012009900EE00898411C27
:1034600002460123089121460C98FFF728FD08B178
:10347000012055E50998401C09900998B842EDD300
:103480000BF1010BBBF1000F9CD0032E01D148467C
:1034900000E00298834600BF0898411C02460123C1
:1034A000089121460C98FFF70AFD08B1012037E585
:1034B000ABF101005FEA000BEED1032E49D152209F
:1034C000207060706120A0704120E070722084F84C
:1034D000E401722140F2E51001554121401C0155E3
:1034E0006121401C0155A8F1010084F8E801C0F3F6
:1034F000072140F2E9100155A8F10100C0F307418E
:103500004FF4F5700155A8F10100010E40F2EB10E7
:103510000155022084F8EC01002140F2ED10015524
:10352000401C0155401C0155552084F8FE01AA217C
:1035300040F2FF10015501230AF1010221460C98C7
:10354000FFF7BDFC01230AF1070221460C98FFF7A3
:10355000B6FC002211460C98FFF757FC08B1012079
:10356000DEE40020DCE400004E4F204E414D4520BB
:103570002020204641543332202020004E4F204E40
:10358000414D45202020204641542020202020006D
:1035900000FFFF00F7B582B016460398019001A81E
:1035A00000F0F8FA0546002D02DA0B2005B0F0BD58
:1035B0000E4850F825400CB100202070029810B140
:1035C0000020029908700949029841F825000298E4
:1035D00008B1012E01D00020E8E7002203A902A8CB
:1035E00000F0D6F807463846E0E700004800002023
:1035F00010B521A0FEF73AFF01222BA12B48FFF7BF
:10360000C9FF2B490870084600780D2823D129A04E
:10361000FEF72CFF0022114623A0FFF779FC244976
:1036200008700846007888B92DA0FEF71FFF012218
:103630001DA10020FFF7AEFF1D49087001221AA14D
:103640001A48FFF7A7FF1A49087014E02CA0FEF7EC
:103650000DFF00BFFEE71648007848B11448017816
:103660002DA0FEF703FF36A0FEF700FF00BFFEE728
:103670003DA0FEF7FBFE10BD2A2A2A2A2A2A20D5C1
:10368000E2CAC7D2BBB8F653504920464C41534812
:1036900020CEC4BCFECFB5CDB3CAB5D1E9202A2A0D
:1036A0002A2A2A2A0D0A0000313A0000DC000020F4
:1036B0000F000020A1B7464C415348BBB9C3BBD350
:1036C000D0CEC4BCFECFB5CDB3A3ACBCB4BDABBDF6
:1036D000F8D0D0B8F1CABDBBAF2E2E2E0D0A000017
:1036E000A1B7464C415348D2D1B3C9B9A6B8F1CA23
:1036F000BDBBAFCEC4BCFECFB5CDB3A1A30D0A00F8
:10370000A1B6A1B6B8F1CABDBBAFCAA7B0DCA1A330
:10371000A1B7A1B70D0A0000A3A1A3A1CDE2B2BF3A
:10372000466C617368B9D2D4D8CEC4BCFECFB5CDD7
:10373000B3CAA7B0DCA1A3282564290D0A000000A4
:10374000A3A1A3A1BFC9C4DCD4ADD2F2A3BA535084
:103750004920466C617368B3F5CABCBBAFB2BBB35A
:10376000C9B9A6A1A30D0A00A1B7CEC4BCFECFB5AE
:10377000CDB3B9D2D4D8B3C9B9A6A3ACBFC9D2D43A
:10378000BDF8D0D0B6C1D0B4B2E2CAD40D0A0000A0
:103790002DE9F74F8AB000210A9801600B9800F0DC
:1037A000F9F909900998002803DA0B200DB0BDE85B
:1037B000F08FE949099851F820400CB90C20F5E741
:1037C0000A980460207878B16078FFF760FB814642
:1037D00009F0010040B90C9820B109F0040008B1CB
:1037E0000A20E3E70020E1E70020207009986070DC
:1037F0006078FFF7EDFA814609F0010008B1032077
:10380000D4E70C9820B109F0040008B10A20CDE7F4
:10381000607804F10A020221FFF7F7FA38B96089EB
:10382000B0F5007F03DB6089B0F5805F01DD01202A
:10383000BCE7002739462046FFF782FA0546012DEE
:1038400001D09DBB32E000261AE004F5F77000EBD2
:10385000061898F8040070B198F80B00010698F863
:103860000A0041EA004198F8090041EA002098F86E
:103870000810084300E0002002A941F82600761C49
:10388000042EE2D3002606B1761E00BF02A850F82F
:10389000267027B139462046FFF752FA00E0022091
:1038A00005461DB1701C06460428EFD3032D01D137
:1038B00001207BE70DB10D2078E73B20015D94F8F6
:1038C0003C0041EA00206189884201D00D206DE76B
:1038D0004620015D94F8470041EA002ABAF1000F42
:1038E0000ED194F85700010694F8560041EA0041C1
:1038F00094F8550041EA002094F8541040EA010A77
:10390000C4F818A04020005DE070E078012804D0E1
:10391000E078022801D00D2048E7E0780AFB00FAA1
:103920003D20005DA070A07818B1A078411E08402D
:1039300008B10D203AE74120015D94F8420041EAC8
:10394000002020816089C11700EBD16149112289D3
:1039500092FBF1F301FB132109B10D2026E743206F
:10396000015D94F8440041EA00200890089870B97D
:1039700094F85300010694F8520041EA004194F88B
:10398000510041EA002094F85010084308903E206E
:10399000015D94F83F0041EA00200190019808B9C8
:1039A0000D2003E76089C11700EBD161491122891D
:1039B00092FBF1F20199514411440791DDE907109E
:1039C000884201D20D20F1E6DDE90710401AA17806
:1039D000B0FBF1FBBBF1000F01D10D20E6E60125A4
:1039E00040F6F670834500D302254FF6F670834506
:1039F00000D303250BF102006061E76101983844B0
:103A0000206207983844A062032D16D1208908B19E
:103A10000D20CBE694F85F00010694F85E0041EAC1
:103A2000004194F85D0041EA002094F85C100843DE
:103A3000606260698000069014E0208908B90D205A
:103A4000B4E6206A50446062022D02D160694000F1
:103A500007E0207D00F00100616901EB410100EB0E
:103A6000510006906089401E069908446189B0FBA8
:103A7000F1F0A169884201D90D2097E64FF0FF309F
:103A80002061E06080206071032D5AD194F86010AD
:103A900094F8610041EA0020012852D1791C2046A7
:103AA00000F036FAE8BB0020607194F82E1294F80A
:103AB0002F0241EA00204AF65521884241D13320A5
:103AC000005D01063220005D41EA00413120005DC9
:103AD00041EA002094F8301008432049884230D150
:103AE00094F81702010694F8160241EA004194F88E
:103AF000150241EA002094F814120843184988423C
:103B00001FD194F81B02010694F81A0241EA004101
:103B100094F8190241EA002094F818120843206131
:103B200000E00EE094F81F02010694F81E0241EA3C
:103B3000004194F81D0241EA002094F81C12084349
:103B4000E060257007480088401C80B20549088065
:103B5000E08000202AE60000480000205252614127
:103B6000727241615000002070B504460D46E1B20A
:103B70000548FEF768FC00BF80210348FEF795FB6F
:103B80000028F9D0204670BD003801400048704739
:103B90000000214670B502464FF0FF301568E5B1D0
:103BA000116800E0491C0D78202D02D30D783A2DC4
:103BB000F8D10D783A2D0FD1146814F8015BA5F1F6
:103BC00030030A2B07D28C4205D1022B03D21846B0
:103BD0004D1C2946156070BD002000BFFBE70000AA
:103BE0002DE9F04107460C4615461E46012C09D129
:103BF000642105FB01F0012100F0CEF931460848AF
:103C0000FEF7C3F9022C09D1642105FB01F0012163
:103C100000F0DEF931460248FEF7B7F9BDE8F08161
:103C20000004004008B501210820FDF7FFF94FF618
:103C3000FF70ADF8000010208DF8030001208DF812
:103C4000020069460448FDF705F84FF6FF71024887
:103C5000FDF748F908BD0000000C01401CB500BF8D
:103C600000BF47214FF4FA70FCF7DAFE47214FF40A
:103C7000FA70FDF77BF84FF4E130FEF713FAFFF727
:103C8000B7FC002004231A46022100900120FCF713
:103C90005FFEFFF7C7FFFCF717FF00F0B5F9FDF770
:103CA00025F9642301221146104600F009FA6E231B
:103CB000C82201210748FFF793FF64200121030771
:103CC000FA22CDE900100021012000F01DF800BF0C
:103CD000FEE700000000484370B503460C4603E0D1
:103CE00014F8015B03F8015B1500A2F10102F7D1A2
:103CF00070BD30B5034601E003F8011B1400A2F1CA
:103D00000102F9D130BD00002DE9F04704460E460E
:103D100017469846DDE90895002D3AD140494046BE
:103D2000FCF722FA8246FCF7C3FA3E490880012CD0
:103D30001BD108460188A007FEF721F9012E04D106
:103D40000021A007FEF723F95DE036480088401EF9
:103D500081B24FF08040FEF71AF9FDF7E1F9824693
:103D6000514631A0FEF782FB4DE0022C4BD12D488D
:103D700001883348FEF703F9012E04D100213048B1
:103D8000FEF705F93FE0274801882D48FEF7FFF8C8
:103D900039E0012C1AD1B9F1010F06D0B9F1020FA7
:103DA0000AD0B9F1030F0FD10DE0642105FB01F03A
:103DB000032100F0F1F808E0642105FB01F0032184
:103DC00000F006F901E000E000BF00BF022C1AD1AC
:103DD000B9F1010F06D0B9F1020F0AD0B9F1030F02
:103DE0000FD10DE0642105FB01F0022100F0D4F8B1
:103DF00008E0642105FB01F0022100F0E9F801E090
:103E000000E000BF00BF012E04D13946204600F07B
:103E10003FF803E03946204600F014F8BDE8F0878B
:103E20000000164514000020B3F5CABCC9E8D6C38B
:103E3000B5C4636F756E7465723A25640A0000003C
:103E40000008004070B504460D46012C0CD102213B
:103E50000D48FDF749F801210B48FDF743F8A9B2D9
:103E60000A48FEF78EF80DE0022C0BD10821064817
:103E7000FDF73AF804210448FDF734F8A9B20348E5
:103E8000FEF781F870BD0000001001400004004002
:103E900070B504460D46012C0CD101210D48FDF7EB
:103EA00023F802210B48FDF71DF8A9B20A48FEF7D6
:103EB00068F80DE0022C0BD104210648FDF714F838
:103EC00008210448FDF70EF8A9B20348FEF75BF895
:103ED00070BD0000001001400004004010B5044611
:103EE000012C08D102210948FCF7FCFF01210748F9
:103EF000FCF7F8FF09E0022C07D108210348FCF782
:103F0000F1FF04210148FCF7EDFF10BD0010014056
:103F100070B504460D460026E06AA84210D020463F
:103F200000F010F806465EB9607801232A4604F1D5
:103F30003001FEF78BFF10B14FF0FF350126E5622F
:103F4000304670BD2DE9F041044600272079F8B1D4
:103F5000E56A607801232A4604F13001FEF7AFFFDD
:103F600008B1012714E000202071206A281AA169F5
:103F700088420DD2E67809E0A06905446078012303
:103F80002A4604F13001FEF79AFF761E022EF3D284
:103F90003846BDE8F081000070B505460C4600BF0C
:103FA000074800780028FBD101200549087001214D
:103FB0000448FDF72FFE044805600448047070BDF6
:103FC00025000020001000401C00002024000020DC
:103FD00070B505460C4600BF074800780028FBD1A5
:103FE00001200549087001210448FDF713FE04482B
:103FF00005600448047070BD3100002000140040CA
:1040000028000020300000201FB501211020FCF7FF
:10401000FDFF40F2E730ADF808004720ADF804009E
:1040200001A92548FDF7E2FF012211462248FDF7CC
:104030008EFE01212048FDF7EAFD4FF4A060FCF759
:10404000DBFF36208DF8000002208DF801000320F0
:104050008DF8020001208DF803006846FCF794FFFC
:1040600001212020FCF7D2FF40F2E730ADF8080034
:104070004720ADF8040001A91048FDF7B7FF012261
:1040800011460E48FDF763FE01210C48FDF7BFFD08
:104090004FF4A060FCF7B0FF37208DF8000002203D
:1040A0008DF8010003208DF8020001208DF8030037
:1040B0006846FCF769FF1FBD001000400014004077
:1040C0002DE9F04106460F4614461D46012F18D132
:1040D000012C09D1642105FB01F00421FFF75CFFED
:1040E00031460B48FCF700FF022C0ED1642105FB82
:1040F00001F00421FFF76CFF31460548FCF7F4FEA0
:1041000003E031460248FCF7EDFEBDE8F081000017
:10411000000C014001030507090E10121416181CAB
:104120001E0000040002000180004000200010007A
:104130000800040002000000008000400020001081
:1041400000080040002000100008000400020000E9
:104150007041000800000020580000008C24000876
:10416000C841000858000020A02500009C24000839
:10417000000000000000000000000000000000003F
:10418000000000000000000000A00000000000008F
:10419000000000000000000000000000000000001F
:1041A00000000000000001020304010203040607EE
:1041B00008090204060800000000000000000000DA
:0841C0000000000000000000F7
:0400000508000145A9
:00000001FF
